{
  "contractName": "MyStatus",
  "abi": [
    {
      "inputs": [],
      "payable": false,
      "stateMutability": "nonpayable",
      "type": "constructor"
    },
    {
      "constant": true,
      "inputs": [],
      "name": "getStatus",
      "outputs": [
        {
          "internalType": "string",
          "name": "",
          "type": "string"
        }
      ],
      "payable": false,
      "stateMutability": "view",
      "type": "function"
    },
    {
      "constant": false,
      "inputs": [
        {
          "internalType": "string",
          "name": "_status",
          "type": "string"
        }
      ],
      "name": "setStatus",
      "outputs": [],
      "payable": false,
      "stateMutability": "nonpayable",
      "type": "function"
    }
  ],
  "bytecode": "0x608060405234801561001057600080fd5b506040518060400160405280600481526020017f62757379000000000000000000000000000000000000000000000000000000008152506000908051906020019061005c929190610062565b50610107565b828054600181600116156101000203166002900490600052602060002090601f016020900481019282601f106100a357805160ff19168380011785556100d1565b828001600101855582156100d1579182015b828111156100d05782518255916020019190600101906100b5565b5b5090506100de91906100e2565b5090565b61010491905b808211156101005760008160009055506001016100e8565b5090565b90565b6102c9806101166000396000f3fe608060405234801561001057600080fd5b50600436106100365760003560e01c80634e69d5601461003b5780637d2211d6146100be575b600080fd5b610043610137565b6040518080602001828103825283818151815260200191508051906020019080838360005b83811015610083578082015181840152602081019050610068565b50505050905090810190601f1680156100b05780820380516001836020036101000a031916815260200191505b509250505060405180910390f35b610135600480360360208110156100d457600080fd5b81019080803590602001906401000000008111156100f157600080fd5b82018360208201111561010357600080fd5b8035906020019184600183028401116401000000008311171561012557600080fd5b90919293919293905050506101d9565b005b606060008054600181600116156101000203166002900480601f0160208091040260200160405190810160405280929190818152602001828054600181600116156101000203166002900480156101cf5780601f106101a4576101008083540402835291602001916101cf565b820191906000526020600020905b8154815290600101906020018083116101b257829003601f168201915b5050505050905090565b8181600091906101ea9291906101ef565b505050565b828054600181600116156101000203166002900490600052602060002090601f016020900481019282601f1061023057803560ff191683800117855561025e565b8280016001018555821561025e579182015b8281111561025d578235825591602001919060010190610242565b5b50905061026b919061026f565b5090565b61029191905b8082111561028d576000816000905550600101610275565b5090565b9056fea265627a7a72315820aeeb6abcf108242ab7ee9f11d7d6aff19a580b7c97c86c4ef5a1a42e9163aabc64736f6c63430005100032",
  "source": "pragma solidity >= 0.5.0 <= 0.9.0;\n\ncontract MyStatus {\n    string status;\n\n    constructor() public {\n        status = \"busy\";\n    }\n\n    function getStatus() external view returns (string memory) {\n        return status;\n    }\n\n    function setStatus(string calldata _status) external {\n        status = _status;\n    }\n}",
  "sourcePath": "/home/abstrucked/dev/solidity/vue-web3/contracts/MyStatus.sol",
  "compiler": {
    "name": "solc",
    "version": "0.5.16+commit.9c3226ce.Emscripten.clang"
  },
  "schemaVersion": "3.4.3",
  "updatedAt": "2021-09-21T17:50:31.807Z",
  "networkType": "ethereum",
  "devdoc": {
    "methods": {}
  },
  "userdoc": {
    "methods": {}
  }
}