{
  "contractName": "MyStatus",
  "abi": [
    {
      "inputs": [],
      "stateMutability": "nonpayable",
      "type": "constructor"
    },
    {
      "inputs": [],
      "type": "function",
      "payable": false,
      "name": "getStatus",
      "outputs": [
        {
          "internalType": "string",
          "name": "",
          "type": "string"
        }
      ],
      "stateMutability": "view",
      "constant": true
    },
    {
      "inputs": [
        {
          "internalType": "string",
          "name": "_status",
          "type": "string"
        }
      ],
      "name": "setStatus",
      "outputs": [],
      "stateMutability": "nonpayable",
      "type": "function"
    }
  ],
  "bytecode": "0x608060405234801561001057600080fd5b50604080518082019091526004808252636275737960e01b602090920191825261003c91600091610042565b50610116565b82805461004e906100db565b90600052602060002090601f01602090048101928261007057600085556100b6565b82601f1061008957805160ff19168380011785556100b6565b828001600101855582156100b6579182015b828111156100b657825182559160200191906001019061009b565b506100c29291506100c6565b5090565b5b808211156100c257600081556001016100c7565b600181811c908216806100ef57607f821691505b6020821081141561011057634e487b7160e01b600052602260045260246000fd5b50919050565b6102e2806101256000396000f3fe608060405234801561001057600080fd5b50600436106100365760003560e01c80634e69d5601461003b5780637d2211d614610059575b600080fd5b61004361006e565b604051610050919061021c565b60405180910390f35b61006c6100673660046101aa565b610100565b005b60606000805461007d90610271565b80601f01602080910402602001604051908101604052809291908181526020018280546100a990610271565b80156100f65780601f106100cb576101008083540402835291602001916100f6565b820191906000526020600020905b8154815290600101906020018083116100d957829003601f168201915b5050505050905090565b61010c60008383610111565b505050565b82805461011d90610271565b90600052602060002090601f01602090048101928261013f5760008555610185565b82601f106101585782800160ff19823516178555610185565b82800160010185558215610185579182015b8281111561018557823582559160200191906001019061016a565b50610191929150610195565b5090565b5b808211156101915760008155600101610196565b600080602083850312156101bd57600080fd5b823567ffffffffffffffff808211156101d557600080fd5b818501915085601f8301126101e957600080fd5b8135818111156101f857600080fd5b86602082850101111561020a57600080fd5b60209290920196919550909350505050565b600060208083528351808285015260005b818110156102495785810183015185820160400152820161022d565b8181111561025b576000604083870101525b50601f01601f1916929092016040019392505050565b600181811c9082168061028557607f821691505b602082108114156102a657634e487b7160e01b600052602260045260246000fd5b5091905056fea2646970667358221220273589f7e7361854bbcc3a8535375012abb5a7807473d9c972e0ad66885caecb64736f6c63430008070033",
  "immutableReferences": {},
  "source": "pragma solidity >= 0.5.0 <= 0.9.0;\n\ncontract MyStatus {\n    string status;\n\n    constructor() public {\n        status = \"busy\";\n    }\n\n    function getStatus() external view returns (string memory) {\n        return status;\n    }\n\n    function setStatus(string calldata _status) external {\n        status = _status;\n    }\n}",
  "sourcePath": "/home/abstrucked/dev/solidity/vue-web3/contracts/MyStatus.sol",
  "compiler": {
    "name": "solc",
    "version": "0.8.7+commit.e28d00a7.Emscripten.clang"
  },
  "schemaVersion": "3.4.3",
  "updatedAt": "2021-09-22T11:35:56.349Z",
  "networkType": "ethereum",
  "devdoc": {
    "kind": "dev",
    "methods": {},
    "version": 1
  },
  "userdoc": {
    "kind": "user",
    "methods": {},
    "version": 1
  }
}